:1000000021C045C044C043C042C093C340C03FC0AC
:100010003EC03DC03CC03BC0D2C48AC4D4C3000073
:10002000000037000000000038000000000036002B
:100030000202020202020102040810200102000072
:100040000400510611241FBECFE5D2E0DEBFCDBFB4
:1000500011E0A0E6B0E0EAE8FEE002C005900D92F3
:10006000A437B107D9F721E0A4E7B1E001C01D92A0
:10007000A53DB207E1F710E0C2E2D0E003C021974E
:10008000FE01F4D6C132D107D1F7B0D4FCC6B8CF47
:10009000813031F48AB58F778ABD8AB58F7B07C0EE
:1000A000823039F48AB58F7D8ABD8AB58F7E8ABD4C
:1000B0000895833039F480B78F7D80BF80B78F7EFD
:1000C00080BF0895843031F48CB58F7D8CBD8CB5A4
:1000D0008F7E8CBD0895CF93DF9387FF11C08F77FC
:1000E00041F0813041F0823041F0833041F08FEFB8
:1000F00007C085E005C082E003C084E001C083E062
:10010000282F30E0F901E45CFF4F8491F901EA5CAB
:10011000FF4FD491F901E05DFF4FC491CC2389F0EA
:100120008111B6DFEC2FF0E0EE0FFF1FE65DFF4F11
:10013000A591B491EC91ED2381E090E021F480E071
:1001400002C080E090E0DF91CF9108958091CE01D0
:10015000C2DF892B51F482E893E10197F1F7809196
:10016000CE01B9DF21E0892B09F020E0822F08952C
:100170000F931F93CF93DF931F92CDB7DEB787FF07
:1001800011C08F7741F0813041F0823041F08330EF
:1001900041F08FEF07C085E005C082E003C084E036
:1001A00001C083E0282F30E0F901E45CFF4F849127
:1001B000F901EA5CFF4F1491F901E05DFF4F0491F2
:1001C0000023D9F0882319F0698362DF6981E02F69
:1001D000F0E0EE0FFF1FEC5DFF4FA591B4918FB7DC
:1001E000611106C0F8949C91E12FE095E92303C0CA
:1001F000F894EC91E12BEC938FBF0F90DF91CF91AE
:100200001F910F910895CF93DF9387FF11C08F77D0
:1002100041F0813041F0823041F0833041F08FEF86
:1002200007C085E005C082E003C084E001C083E030
:1002300090E0FC01EA5CFF4F2491FC01E05DFF4F80
:100240008491882361F190E0880F991FFC01E25EA0
:10025000FF4FC591D491FC01EC5DFF4FA591B49186
:10026000611109C09FB7F894888120958223888303
:10027000EC912E230BC0623061F49FB7F894388163
:10028000822F809583238883EC912E2B2C939FBF04
:1002900006C08FB7F894E8812E2B28838FBFDF919B
:1002A000CF910895CF93DF93CDECD1E061E08881C9
:1002B000AADF61E088815CDF2FB7F8948091C901E3
:1002C0009091CA01A091CB01B091CC012FBF8C833A
:1002D0009D83AE83BF83DF91CF9108953FB7F8949C
:1002E0008091B2019091B301A091B401B091B50198
:1002F00022B708B601FE05C02F3F19F00196A11DD7
:10030000B11D3FBFBA2FA92F982F8827820F911DAB
:10031000A11DB11DBC01CD0143E0660F771F881FF1
:10032000991F4A95D1F708950F931F93CF93DF93A9
:10033000EC018B0162E0898166DF8981CCDE892B4B
:10034000D9F48881811103C081E0888316C081308F
:10035000A1F4F80180819181A281B3810196A11D50
:10036000B11D80839183A283B38382E0888360E0A0
:10037000898149DF81E005C0188260E0898143DF1F
:1003800080E0DF91CF911F910F910895909194019A
:10039000492F50E0FA01EA56FE4F30818091C501A5
:1003A000882389F08091C601803220F58091C701B1
:1003B000E82FF0E0EC58FE4F30838F5F8093C70149
:1003C0008093C60117C02091BC018091BD012F5FB1
:1003D000821B8F7079F08091BC018F5F8F702091AC
:1003E000BD018217E1F3E82FF0E0EC57FE4F3083B8
:1003F0008093BC01433151051CF49F5F909394019D
:100400000895AF92BF92CF92DF92EF92FF920F9337
:100410001F93CF93DF931F92CDB7DEB78091B701C3
:10042000082F10E02091B80130E021503109021767
:10043000130714F48F5F01C080E08093B70120910F
:10044000B6016091B90170E090E0C1D45C01A20EE8
:10045000B11C8AE6E82E80E0F82E650188E0C80E1F
:10046000D11CF70161917F01C50169839AD469812B
:10047000681711F0C5019DD4FFEFAF1ABF0AAC1485
:10048000BD0479F74091B90150E08AE690E0892BEC
:10049000B1F060E020E030E02417350770F4D901B6
:1004A000AC59BF4F16969C91E62FE927F0E0ED5826
:1004B000FF4F60812F5F3F4FEFCF611101C061E0BF
:1004C0002091B7018091BA019091BB01820F911DDB
:1004D00070D48091BA019091BB0160E0800F911FB0
:1004E0000F90DF91CF911F910F91FF90EF90DF90D0
:1004F000CF90BF90AF905DC46AE670E08CEA91E067
:1005000013DF81117EDF6EE670E08AEA91E00CDF96
:10051000811177CF08952F923F924F925F926F9201
:100520007F928F929F92AF92BF92CF92DF92EF9283
:10053000FF920F931F93CF93DF93CDB7DEB728972A
:100540000FB6F894DEBF0FBECDBF5C014A01FC01BF
:10055000C3802081E62EF12CD12CC701B60137D4FF
:10056000820F911D8E010F5F1F4F1E01F9E02F0EAC
:10057000311C28013C01601A710AC301840D951DCC
:1005800010D4F20181932F01E215F305B1F7D801E0
:10059000712CCD01801B910B8C159D0540F4ED91C4
:1005A0007E26E72DF0E0ED58FF4F7080F2CFF50189
:1005B000848195818E0D9F1DF4D3871521F08130A4
:1005C00059F4711009C088E0F801D40101900D922E
:1005D0008A95E1F781E001C080E028960FB6F89493
:1005E000DEBF0FBECDBFDF91CF911F910F91FF9066
:1005F000EF90DF90CF90BF90AF909F908F907F90C3
:100600006F905F904F903F902F90089544E150E09D
:100610006AEA70E086E991E02FD41092940110927A
:1006200095010895809372001092C7011092C6013F
:100630001092C5011092BF011092BE011092BD012F
:100640001092BC018AE08093C4011092C301109201
:10065000C2011092C1011092C001C29AC09ABA9A06
:10066000B89888EA8DB980EF8EB984E493E09093CE
:10067000C1018093C00186EC91E09093C301809307
:10068000C2011092C801C2CF1F93CF93DF93909104
:10069000C601992329F08091C70198130BC007C0A8
:1006A0009091BF018091BE01891B8F7069F4CFEFDB
:1006B000DFEF1BC0E82FF0E0EC58FE4FC081D0E028
:1006C0008F5F8093C70111C08091BF019091BE01DF
:1006D0009817E1F3E091BF01EF5FEF70E093BF0186
:1006E000F0E0EC58FE4FC081D0E01C2F8FDFDD27FB
:1006F000CD34D105A1F0CA35D10569F0C234D10598
:1007000091F48EE0E4E6F0E0A6E9B1E001900D920C
:100710008A95E1F708C081E08093C80104C0809108
:1007200072008093960110939501DF91CF911F91F4
:1007300008951F920F920FB60F9211242F933F939B
:100740008F939F93AF93BF938091C9019091CA01FA
:10075000A091CB01B091CC013091B10126E0230FE3
:100760002D3730F029E8230F0396A11DB11D03C0DA
:100770000296A11DB11D2093B1018093C9019093F0
:10078000CA01A093CB01B093CC018091B2019091AA
:10079000B301A091B401B091B5010196A11DB11DA5
:1007A0008093B2019093B301A093B401B093B501CB
:1007B000BF91AF919F918F913F912F910F900FBE5D
:1007C0000F901F9018951F920F920FB60F92112441
:1007D0002F933F934F935F936F937F938F939F9349
:1007E000AF93BF93CF93EF93FF938091AE0182308D
:1007F00009F44CC028F4882359F0813051F186C0A7
:10080000843009F449C010F1853009F467C07EC016
:100810008FB1882331F08FB186959091C4018913EF
:1008200030C0789B0DC0E091C201F091C3013097B8
:1008300029F08091BC018093BD01099581E001C040
:1008400084E08093AE011FB8B89A5EC08FB1811169
:1008500018C08091BD019091BC01981791F08091D2
:10086000BD018F5F8F708093BD01E091BD01F0E00D
:10087000EC57FE4F80818FB982E08093AE01B89A29
:1008800003C0B89888EA8DB980E73FC083E08093C1
:10089000AE01B8981FB838C085E08093AE01B89813
:1008A00080E78EB9E091C001F091C101309771F1FC
:1008B000C091BE018091BF018C1741F18EB18E7A3B
:1008C000E9F3759B23C09091BF018091BE01891B04
:1008D0008F7090E00995C093BF0118C084E08093A9
:1008E000AE019FB18091BE018F5F8F702091BF01DB
:1008F000281749F08093BE01E091BE01F0E0EC586A
:10090000FE4F9083A0CFB8988EE78EB9FF91EF91FC
:10091000CF91BF91AF919F918F917F916F915F9197
:100920004F913F912F910F900FBE0F901F901895F0
:100930001F920F920FB60F9211242F933F934F9354
:100940005F936F937F938F939F93AF93BF93CF9357
:10095000EF93FF93E091C001F091C101309781F0D6
:10096000C091BE018091BF018C1751F09091BF01E1
:100970008091BE01891B8F7090E00995C093BF01E3
:100980001092AE01B898B29B04C0B09BFCCF88EA2D
:1009900001C088EF8DB980EF8EB9FF91EF91CF91B3
:1009A000BF91AF919F918F917F916F915F914F9187
:1009B0003F912F910F900FBE0F901F9018951F928F
:1009C0000F920FB60F9211248F939F938091AF01D6
:1009D0009091B00101979093B0018093AF019F91E6
:1009E0008F910F900FBE0F901F90189581B781BF08
:1009F0008AB582608ABD8AB581608ABD83B7887FE7
:100A0000826083BF789489B7826089BF80B7807F16
:100A100080BF80B7806880BF8CB580648CBD8FEF4D
:100A20008DBD80B7846080BF86B18877836886B9C2
:100A3000379A84B7809365004AE650E06091B70129
:100A400086EB91E068DDF894479A789414BE88E1CB
:100A500081BD84E481BDA89537980CE090EA892E89
:100A600095E0992EA12CB12C11E024E7222E2FE342
:100A7000322E33E0432E512C612C712C80B58F60C7
:100A800080BD85B7877E806185BF14BE28E121BD0A
:100A900084E481BDA895C0EFD0E08091CF018111A1
:100AA00027C080916000909161009093B001809385
:100AB000AF018091AF019091B00118161906B4F4FE
:100AC000F8941ADD8091D001811107C03FDB80933B
:100AD000CF01882311F0789409C0789485B780629B
:100AE00085BF889585B78F7D85BFE3CF2197A9F610
:100AF0000FB6F894A89581B5886181BD11BC0FBE71
:100B000014BE80B5807F80BD379A07B9E7DBEB0163
:100B100082E0C82ED12CE12CF12CE0DB6C1B7D0B8C
:100B2000683E734040F021E0C21AD108E108F108A4
:100B3000C851DC4FF2CFC114D104E104F10469F7CC
:100B4000369A3699FECF24B185B1379830E0382BEC
:100B500040E050E060E070E381E190E049D1DA01EB
:100B6000C901AA27BB278093660090936700A093D2
:100B70006800B09369004AE650E06091B70186EBE7
:100B800091E0C9DC8091CF018823B1F140926000EF
:100B9000509261006092620070926300D7DA811116
:100BA000FDCF81E03FDD1093D0011092CF017ADBC1
:100BB0008091C801811154C02FB7F8948091C90168
:100BC0009091CA01A091CB01B091CC012FBF40916F
:100BD000D1015091D2016091D3017091D401841B55
:100BE000950BA60BB70B813E9349A440B105C0F508
:100BF000C1010197F1F7DCCF809260009092610013
:100C0000A0926200B092630082E00CDD1093D001EC
:100C10001092CF0147DB8091C801811121C02FB70D
:100C2000F8948091C9019091CA01A091CB01B09133
:100C3000CC012FBF4091D1015091D2016091D301DD
:100C40007091D401841B950BA60BB70B89399A437D
:100C5000A105B10528F450DCC1010197F1F7DBCF04
:100C60001092D0011092CF018CED94E00197F1F732
:100C700060E08091CD017CDA60E08091CD01C3DA43
:100C80001092D1011092D2011092D3011092D4018E
:100C9000BA98B8981DB880EF8EB984B78093650074
:100CA000EDCEEF92FF920F931F93CF93DF93CDB7CB
:100CB000DEB728970FB6F894DEBF0FBECDBF1092F7
:100CC000AC0184E08093AD011092AA0183E080938F
:100CD000AB0181E08093CD0182E08093CE01109240
:100CE000CF011092D00160E081E08DDA60E0809168
:100CF000CE0189DA1092B6011092B70184E1809397
:100D0000B80188E08093B90180EA90E09093BB013C
:100D10008093BA0100E010E0E12CF12C8091B80141
:100D200090E008171907D4F48091BA019091BB01A3
:100D3000800F911F36D0E80EF11CE114F10459F038
:100D40000093B701AE014F5F5F4F602F86EB91E0DC
:100D5000E2DB811119C00F5F1F4FE0CF1092B70186
:100D60000091B60110E02091B8018091BA019091F4
:100D7000BB01820F911D0817190730F460E0C8010C
:100D800018D00F5F1F4FEFCF28960FB6F894DEBF35
:100D90000FBECDBFDF91CF911F910F91FF90EF90CC
:100DA0000895E199FECF9FBB8EBBE09A99278DB342
:100DB0000895262FE199FECF1CBA9FBB8EBB2DBB99
:100DC0000FB6F894E29AE19A0FBE019608950024B6
:100DD000552704C0080E591F880F991F009729F046
:100DE00076956795B8F37105B9F7802D952F08951D
:100DF000052E97FB16F400940FD057FD05D014D0A4
:100E000007FC02D046F408C05095409530952195D6
:100E10003F4F4F4F5F4F0895909580957095619526
:100E20007F4F8F4F9F4F0895A1E21A2EAA1BBB1B25
:100E3000FD010DC0AA1FBB1FEE1FFF1FA217B307A6
:100E4000E407F50720F0A21BB30BE40BF50B661FBC
:100E5000771F881F991F1A9469F760957095809580
:100E600090959B01AC01BD01CF010895EE0FFF1FCE
:100E70000590F491E02D0994DC0101C06D9341507F
:0A0E80005040E0F70895F894FFCF0A
:100E8A00A0050000040000000000000000000000AF
:100E9A0000000200316253C4F5A697B988DBEA7DE7
:100EAA004C1F2E4372211087B6E5D4FACB98A93E7F
:100EBA000F5C6D86B7E4D5427320113F0E5D6CFB63
:100ECA00CA99A8C5F4A796013063527C4D1E2FB863
:100EDA0089DAEB3D0C5F6EF9C89BAA84B5E6D74068
:100EEA007122137E4F1C2DBA8BD8E9C7F6A594033D
:100EFA00326150BB8AD9E87F4E1D2C02336051C63D
:100F0A00F7A495F8C99AAB3C0D5E6F417023128520
:100F1A00B4E7D67A4B1829BE8FDCEDC3F2A190074D
:100F2A0036655439085B6AFDCC9FAE80B1E2D34482
:100F3A00752617FCCD9EAF38095A6B457427168162
:100F4A00B0E3D2BF8EDDEC7B4A192806376455C25E
:100F5A00F3A0914776251483B2E1D0FECF9CAD3A37
:100F6A000B586904356657C0F1A293BD8CDFEE7940
:100F7A00481B2AC1F0A3920534675678491A2BBC3C
:100F8A008DDEEF82B3E0D1467724153B0A5968FF1C
:040F9A00CE9DAC003C
:00000001FF
