:1000000021C045C044C043C042C095C340C03FC0AA
:100010003EC03DC03CC03BC0D4C48CC4D6C300006D
:10002000000037000000000038000000000036002B
:100030000202020202020102040810200102000072
:1000400004003C0611241FBECFE5D2E0DEBFCDBFC9
:1000500011E0A0E6B0E0ECE4FEE002C005900D92F5
:10006000A237B107D9F721E0A2E7B1E001C01D92A4
:10007000A13DB207E1F710E0C2E2D0E003C0219752
:10008000FE01BFD6C132D107D1F7B2D4DDC6B8CF99
:10009000813031F48AB58F778ABD8AB58F7B07C0EE
:1000A000823039F48AB58F7D8ABD8AB58F7E8ABD4C
:1000B0000895833039F480B78F7D80BF80B78F7EFD
:1000C00080BF0895843031F48CB58F7D8CBD8CB5A4
:1000D0008F7E8CBD0895CF93DF9387FF11C08F77FC
:1000E00041F0813041F0823041F0833041F08FEFB8
:1000F00007C085E005C082E003C084E001C083E062
:10010000282F30E0F901E45CFF4F8491F901EA5CAB
:10011000FF4FD491F901E05DFF4FC491CC2389F0EA
:100120008111B6DFEC2FF0E0EE0FFF1FE65DFF4F11
:10013000A591B491EC91ED2381E090E021F480E071
:1001400002C080E090E0DF91CF9108950F931F935C
:10015000CF93DF931F92CDB7DEB787FF11C08F77A4
:1001600041F0813041F0823041F0833041F08FEF37
:1001700007C085E005C082E003C084E001C083E0E1
:10018000282F30E0F901E45CFF4F8491F901EA5C2B
:10019000FF4F1491F901E05DFF4F04910023D9F066
:1001A000882319F0698374DF6981E02FF0E0EE0F96
:1001B000FF1FEC5DFF4FA591B4918FB7611106C091
:1001C000F8949C91E12FE095E92303C0F894EC9119
:1001D000E12BEC938FBF0F90DF91CF911F910F9187
:1001E0000895CF93DF9387FF11C08F7741F081305F
:1001F00041F0823041F0833041F08FEF07C085E05D
:1002000005C082E003C084E001C083E090E0FC010F
:10021000EA5CFF4F2491FC01E05DFF4F849188234D
:1002200061F190E0880F991FFC01E25EFF4FC591DC
:10023000D491FC01EC5DFF4FA591B491611109C00F
:100240009FB7F8948881209582238883EC912E2390
:100250000BC0623061F49FB7F8943881822F80958B
:1002600083238883EC912E2B2C939FBF06C08FB7DE
:10027000F894E8812E2B28838FBFDF91CF910895CA
:100280003FB7F8948091BA019091BB01A091BC0155
:10029000B091BD0122B708B601FE05C02F3F19F08D
:1002A0000196A11DB11D3FBFBA2FA92F982F8827F6
:1002B000820F911DA11DB11DBC01CD0143E0660F50
:1002C000771F881F991F4A95D1F708952FB7F89483
:1002D0006091B6017091B7018091B8019091B90118
:1002E0002FBF089582E0F7DE892B49F482E893E17D
:1002F0000197F1F782E0EFDE21E0892B09F020E0A1
:10030000822F0895CF92DF92EF92FF92DFDF6B0191
:100310007C01E8DF8111FDCFD9DF6C197D098E09E1
:100320009F09FF90EF90DF90CF9008950F931F9358
:10033000CF93DF93EC018B0162E0898152DF8981E9
:10034000CADE892BD9F48881811103C081E08883BA
:1003500016C08130A1F4F80180819181A281B3811E
:100360000196A11DB11D80839183A283B38382E096
:10037000888360E0898135DF81E005C0188260E014
:1003800089812FDF80E0DF91CF911F910F91089538
:1003900090919201492F50E0FA01EC56FE4F3081C6
:1003A0008091CD01882389F08091CE01803220F5A3
:1003B0008091CF01E82FF0E0EE58FE4F30838F5F41
:1003C0008093CF018093CE0117C02091C40180910A
:1003D000C5012F5F821B8F7079F08091C4018F5F00
:1003E0008F702091C5018217E1F3E82FF0E0EE57FE
:1003F000FE4F30838093C401433151051CF49F5F4D
:10040000909392010895AF92BF92CF92DF92EF92B4
:10041000FF920F931F93CF93DF931F92CDB7DEB759
:100420008091BF01082F10E02091C00130E02150E1
:1004300031090217130714F48F5F01C080E0809325
:10044000BF012091BE016091C10170E090E08AD4AB
:100450005C01A20EB11C88E6E82E80E0F82E650152
:1004600088E0C80ED11CF70161917F01C501698345
:10047000D5D46981681711F0C501D8D4FFEFAF1A40
:10048000BF0AAC14BD0479F74091C10150E088E681
:1004900090E0892BB1F060E020E030E024173507D0
:1004A00070F4D901A05ABF4F18969C91E62FE92706
:1004B000F0E0EF58FF4F60812F5F3F4FEFCF6111AA
:1004C00001C061E02091BF018091C2019091C30100
:1004D000820F911DABD48091C2019091C30160E065
:1004E000800F911F0F90DF91CF911F910F91FF907F
:1004F000EF90DF90CF90BF90AF9098C468E670E027
:100500008AEA91E013DF81117EDF6CE670E088EA11
:1005100091E00CDF811177CF08952F923F924F9297
:100520005F926F927F928F929F92AF92BF92CF9283
:10053000DF92EF92FF920F931F93CF93DF93CDB78C
:10054000DEB728970FB6F894DEBF0FBECDBF5C01B3
:100550004A01FC01C3802081E62EF12CD12CC70179
:10056000B60100D4820F911D8E010F5F1F4F1E0137
:10057000F9E02F0E311C28013C01601A710AC301F9
:10058000840D951D4BD4F20181932F01E215F305E3
:10059000B1F7D801712CCD01801B910B8C159D05F5
:1005A00040F4ED917E26E72DF0E0EF58FF4F70808C
:1005B000F2CFF501848195818E0D9F1D2FD4871573
:1005C00021F0813059F4711009C088E0F801D4019C
:1005D00001900D928A95E1F781E001C080E02896B4
:1005E0000FB6F894DEBF0FBECDBFDF91CF911F9144
:1005F0000F91FF90EF90DF90CF90BF90AF909F90C2
:100600008F907F906F905F904F903F902F900895C4
:1006100044E150E06AEA70E084E991E0F8D3109296
:100620009201109293010895809370001092CF016F
:100630001092CE011092CD011092C7011092C60106
:100640001092C5011092C4018AE08093CC011092EF
:10065000CB011092CA011092C9011092C801C29A2E
:10066000C09ABA9AB89888EA8DB980EF8EB986E4B4
:1006700093E09093C9018093C80188EC91E0909336
:10068000CB018093CA011092D001C2CF1F93CF93A8
:10069000DF939091CE01992329F08091CF01981397
:1006A0000BC007C09091C7018091C601891B8F7054
:1006B00069F4CFEFDFEF1BC0E82FF0E0EE58FE4FFC
:1006C000C081D0E08F5F8093CF0111C08091C701BE
:1006D0009091C6019817E1F3E091C701EF5FEF70C9
:1006E000E093C701F0E0EE58FE4FC081D0E01C2F30
:1006F0008FDFDD27CD34D105A1F0CA35D10569F0F2
:10070000C234D10591F480E1E0E6F0E0A4E9B1E083
:1007100001900D928A95E1F708C081E08093D001A5
:1007200004C0809170008093940110939301DF9135
:10073000CF911F9108951F920F920FB60F9211241F
:100740002F933F938F939F93AF93BF938091B60165
:100750009091B701A091B801B091B9013091B50164
:1007600026E0230F2D3730F029E8230F0396A11D33
:10077000B11D03C00296A11DB11D2093B501809348
:10078000B6019093B701A093B801B093B9018091DD
:10079000BA019091BB01A091BC01B091BD0101963D
:1007A000A11DB11D8093BA019093BB01A093BC0120
:1007B000B093BD01BF91AF919F918F913F912F91C8
:1007C0000F900FBE0F901F9018951F920F920FB6AB
:1007D0000F9211242F933F934F935F936F937F93C7
:1007E0008F939F93AF93BF93CF93EF93FF9380919A
:1007F000AC01823009F44CC028F4882359F08130D0
:1008000051F186C0843009F449C010F1853009F4F3
:1008100067C07EC08FB1882331F08FB186959091EB
:10082000CC01891330C0789B0DC0E091CA01F091D2
:10083000CB01309729F08091C4018093C5010995BF
:1008400081E001C084E08093AC011FB8B89A5EC01B
:100850008FB1811118C08091C5019091C401981782
:1008600091F08091C5018F5F8F708093C501E091F9
:10087000C501F0E0EE57FE4F80818FB982E0809392
:10088000AC01B89A03C0B89888EA8DB980E73FC038
:1008900083E08093AC01B8981FB838C085E080939E
:1008A000AC01B89880E78EB9E091C801F091C90118
:1008B000309771F1C091C6018091C7018C1741F149
:1008C0008EB18E7AE9F3759B23C09091C701809118
:1008D000C601891B8F7090E00995C093C70118C0AD
:1008E00084E08093AC019FB18091C6018F5F8F70CF
:1008F0002091C701281749F08093C601E091C601F5
:10090000F0E0EE58FE4F9083A0CFB8988EE78EB9F6
:10091000FF91EF91CF91BF91AF919F918F917F9177
:100920006F915F914F913F912F910F900FBE0F905C
:100930001F9018951F920F920FB60F9211242F93AC
:100940003F934F935F936F937F938F939F93AF9357
:10095000BF93CF93EF93FF93E091C801F091C9014A
:10096000309781F0C091C6018091C7018C1751F07A
:100970009091C7018091C601891B8F7090E0099505
:10098000C093C7011092AC01B898B29B04C0B09B51
:10099000FCCF88EA01C088EF8DB980EF8EB9FF9156
:1009A000EF91CF91BF91AF919F918F917F916F9177
:1009B0005F914F913F912F910F900FBE0F901F901D
:1009C00018951F920F920FB60F9211248F939F9339
:1009D0008091B3019091B40101979093B4018093F9
:1009E000B3019F918F910F900FBE0F901F9018959C
:1009F00081B781BF8AB582608ABD8AB581608ABDB0
:100A000083B7887F826083BF789489B7826089BF0B
:100A100080B7807F80BF80B7806880BF8CB58064DE
:100A20008CBD8FEF8DBD80B7846080BF86B1887725
:100A3000836886B9379A84B780936100F894479A9F
:100A4000789414BE88E181BD83E481BDA895379870
:100A500060E082E0C6DB48E650E06091BF018EEBCB
:100A600091E05BDD9091C001C091C201D091C301C2
:100A7000882351F0C90FD11DCE01D0D161E0680F9C
:100A800060936600CE0105C060E09E01290F311D14
:100A9000C901CCD138E1632E43E4742E00EA15E09D
:100AA000812C50E3952E51E1A52EB12C64E7E62E62
:100AB0006FE3F62E7EECC72E70E3D72E80B58F60E5
:100AC00080BD85B7877E806185BF14BE61BC71BC67
:100AD000A895C0EED1E006DC81111DC01093B401D1
:100AE0000093B3018091B3019091B40118161906D7
:100AF00084F4F89403DDF6DB882311F0789409C0C0
:100B0000789485B7806285BF889585B78F7D85BFCE
:100B1000E9CF219701F70FB6F894A89581B58861C0
:100B200081BD11BC0FBE80B5807F80BD379A8CE03F
:100B300087B9A6DBEB0182E0282E312C412C512C09
:100B40009FDB6C1B7D0B683E734040F031E0231A45
:100B5000310841085108C851DC4FF2CF211431044B
:100B60004104510469F7369A3699FECF24B185B114
:100B7000379830E0382B40E050E0C501B40103D194
:100B8000DA01C901AA27BB27809362009093630012
:100B9000A0936400B093650048E650E06091BF0107
:100BA0008EEB91E0BADCAEDB693B7B4081059105C1
:100BB00050F081E039DD20EE222E23E9322E24E0B0
:100BC000422E512C08C082E02FDD98E9292E9AE3AD
:100BD000392E412C512C81E08093AE0161E080914F
:100BE000AD01FFDA61E08091AD01B0DA6FDB6093B7
:100BF000AF017093B0018093B1019093B2018091E5
:100C0000D00181111EC062DB2091AF013091B00193
:100C10004091B1015091B201DC01CB01821B930BD9
:100C2000A40BB50B281639064A065B0650F066DCA5
:100C3000C7010197F1F766DB693B7B4081059105B0
:100C4000F0F21092AE01C6010197F1F760E08091D9
:100C5000AD017CDA60E08091AD01C3DA1092AF01A2
:100C60001092B0011092B1011092B201BA98B898E6
:100C70001DB880EF8EB922CFEF92FF920F931F9392
:100C8000CF93DF93CDB7DEB728970FB6F894DEBFCA
:100C90000FBECDBF1092AA0184E08093AB011092E9
:100CA000A80183E08093A90181E08093AD011092B7
:100CB000AE0160E096DA1092BE011092BF0184E1AD
:100CC0008093C00188E08093C10180EA90E0909316
:100CD000C3018093C20100E010E0E12CF12C80916F
:100CE000C00190E008171907D4F48091C2019091D7
:100CF000C301800F911F92D0E80EF11CE114F104A2
:100D000059F00093BF01AE014F5F5F4F602F8EEB34
:100D100091E003DC811119C00F5F1F4FE0CF1092EB
:100D2000BF010091BE0110E02091C0018091C2017D
:100D30009091C301820F911D0817190730F460E0EC
:100D4000C80174D00F5F1F4FEFCF28960FB6F894ED
:100D5000DEBF0FBECDBFDF91CF911F910F91FF90EE
:100D6000EF9008950024552704C0080E591F880FDE
:100D7000991F009729F076956795B8F37105B9F733
:100D8000802D952F0895052E97FB16F400940FD013
:100D900057FD05D014D007FC02D046F408C050958A
:100DA0004095309521953F4F4F4F5F4F0895909557
:100DB0008095709561957F4F8F4F9F4F0895A1E269
:100DC0001A2EAA1BBB1BFD010DC0AA1FBB1FEE1FC5
:100DD000FF1FA217B307E407F50720F0A21BB30B10
:100DE000E40BF50B661F771F881F991F1A9469F78C
:100DF00060957095809590959B01AC01BD01CF01E8
:100E00000895EE0FFF1F0590F491E02D0994DC0189
:100E100001C06D9341505040E0F70895E199FECF35
:100E20009FBB8EBBE09A99278DB30895262FE19939
:100E3000FECF1CBA9FBB8EBB2DBB0FB6F894E29AB7
:0C0E4000E19A0FBE01960895F894FFCFD0
:100E4C000500000000000000000000000000000091
:100E5C000200316253C4F5A697B988DBEA7D4C1FBA
:100E6C002E4372211087B6E5D4FACB98A93E0F5CBD
:100E7C006D86B7E4D5427320113F0E5D6CFBCA99A9
:100E8C00A8C5F4A796013063527C4D1E2FB889DAA1
:100E9C00EB3D0C5F6EF9C89BAA84B5E6D740712276
:100EAC00137E4F1C2DBA8BD8E9C7F6A5940332617B
:100EBC0050BB8AD9E87F4E1D2C02336051C6F7A473
:100ECC0095F8C99AAB3C0D5E6F4170231285B4E75F
:100EDC00D67A4B1829BE8FDCEDC3F2A1900736658C
:100EEC005439085B6AFDCC9FAE80B1E2D3447526C1
:100EFC0017FCCD9EAF38095A6B4574271681B0E3A9
:100F0C00D2BF8EDDEC7B4A192806376455C2F3A09C
:100F1C00914776251483B2E1D0FECF9CAD3A0B58A5
:100F2C006904356657C0F1A293BD8CDFEE79481B7E
:100F3C002AC1F0A3920534675678491A2BBC8DDE72
:100F4C00EF82B3E0D1467724153B0A5968FFCE9D5A
:020F5C00AC00E7
:00000001FF
